:030000000208A251
:0C08A200787FE4F6D8FD7581160208E9A5
:0C0B2B003030207C20303000008000853D
:100B0600010E00010F00010B00020C00000308009B
:020B16000000DD
:100A1500E4F5A0C282C280C2817F38FE120A931219
:100A25000ACA7F067E00120A93120ACA7F0C7E004C
:100A3500120A93120ACA7F017E00120A93120ACA89
:070A45007F807E00020A938E
:040ACA007F047E0027
:100ACE00E4FDFCC3ED9FEC9E5015E4FBFA0BBB005E
:0F0ADE00010ABA01F8BB7EF50DBD00010C80E4E2
:010AED0022E6
:100999008E128F138B148A1589167C007D641208B8
:1009A9004D7E007F0ACFCDCFCECCCE12084DEF249D
:1009B90030120819AE12AF137C007D0A12084DEDF2
:0E09C9002430AB14AA15A91690000102082BC9
:100A7F00E50B25E02433F582E4340BF583E493FE94
:040A8F00740193FF5C
:100A9300C280C281D2828FA07F0A7E00120ACEC298
:020AA3008222AD
:100B1900D280C281D2828FA07F0A7E00120ACEC201
:020B2900822226
:100AA5008B128A138914AB12AA13A91412080060B9
:100AB500130514E5147002051314F9120800FF124A
:050AC5000B1980E22284
:02092E008F1028
:10093000740C250BF8E6FFC3E5109FF5113395E025
:10094000C3648094805006E511F404F511AF11EFF3
:100950003395E04F6042740C250BF8E6FFE510D3A9
:100960009F4003068009740C250BF816120A7F7F3E
:10097000E87E03120ACE120A7F740C250BF8E6FFFC
:100980007E007B007A0079081209997B007A007951
:0809900008120AA5151180B53B
:01099800223C
:020AEE008F1067
:100AF000E590540FF97F647E00120ACEE96510601C
:050B0000EFAF017E00D3
:010B050022CD
:1009D700C3EF950CFDC3EF950DFFED3395E0C364B1
:1009E7008094805004EDF404FDEF3395E0C36480F8
:1009F70094805004EFF404FFD3EF6480F8ED648033
:0D0A07009840047E018002E4FEAF067E00F0
:010A140022BF
:100A4C007590FF120A157BFF7A0B792B120AA5AF52
:100A5C000F120AEE8F0E1209D78F0BAF0E12092E42
:100A6C00AF0E120AEE8F0F12092E7FD07E07120ADC
:030A7C00CE80DC4D
:1008AE00020A4CE493A3F8E493A34003F68001F20A
:1008BE0008DFF48029E493A3F85407240CC8C3334B
:1008CE00C4540F4420C8834004F456800146F6DF1A
:1008DE00E4800B0102040810204080900B06E47E99
:1008EE00019360BCA3FF543F30E509541FFEE4930F
:1008FE00A360010ECF54C025E060A840B8E493A3D6
:10090E00FAE493A3F8E493A3C8C582C8CAC583CA00
:10091E00F0A3C8C582C8CAC583CADFE9DEE780BEB8
:010B180000DC
:10080000BB010689828A83E0225002E722BBFE02F6
:09081000E32289828A83E4932229
:10081900BB010689828A83F0225002F722BBFE01BE
:02082900F322B8
:10082B00F8BB010DE58229F582E5833AF583E8F003
:10083B00225006E92582C8F622BBFE05E92582C8AF
:02084B00F22297
:10084D00BC000BBE0029EF8DF084FFADF022E4CC8F
:10085D00F875F008EF2FFFEE33FEEC33FCEE9DEC58
:10086D00984005FCEE9DFE0FD5F0E9E4CEFD22ED9E
:10087D00F8F5F0EE8420D21CFEADF075F008EF2FE8
:10088D00FFED33FD4007985006D5F0F222C398FDD9
:05089D000FD5F0EA2276
:00000001FF
